:020000040800F2
:10000000000001202D2A0008B5280008B7280008A4
:10001000B9280008BB280008BD280008000000001F
:10002000000000000000000000000000BF280008E1
:10003000C128000800000000C3280008C5280008E7
:10004000752A0008752A0008752A0008752A000814
:10005000752A0008752A0008752A0008752A000804
:10006000752A0008752A0008752A0008752A0008F4
:10007000752A0008752A0008752A0008752A0008E4
:10008000752A0008752A0008752A0008752A0008D4
:10009000752A0008752A0008752A0008752A0008C4
:1000A000752A0008752A0008752A0008752A0008B4
:1000B000752A0008752A0008752A0008752A0008A4
:1000C000752A0008752A0008752A0008752A000894
:1000D000752A0008752A0008752A0008752A000884
:1000E000752A0008752A0008752A0008752A000874
:1000F000752A0008752A0008752A0008752A000864
:10010000752A0008752A0008752A0008752A000853
:10011000752A0008752A0008752A0008752A000843
:10012000752A0008752A0008752A0008752A000833
:1001300000000000000000000000000000000000BF
:1001400000000000000000000000000000000000AF
:10015000000000000000000000000000000000009F
:10016000000000000000000000000000000000008F
:10017000000000000000000000000000000000007F
:10018000000000000000000000000000000000006F
:10019000000000000000000000000000000000005F
:1001A000000000000000000000000000000000004F
:1001B000000000000000000000000000000000003F
:1001C000000000000000000000000000000000002F
:1001D000000000000000000000000000000000001F
:0401E0005FF8E0F1F3
:1001E80010B5054C237833B9044B13B10448AFF369
:1001F80000800123237010BDB80900200000000012
:10020800B47A000808B5034B1BB103490348AFF3A0
:10021800008008BD00000000BC090020B47A000876
:1002280081F0004102E000BF83F0004330B54FEA9F
:1002380041044FEA430594EA050F08BF90EA020F0C
:100248001FBF54EA000C55EA020C7FEA645C7FEA9F
:10025800655C00F0E2804FEA5454D4EB5555B8BFC2
:100268006D420CDD2C4480EA020281EA030382EA33
:10027800000083EA010180EA020281EA0303362DC5
:1002880088BF30BD11F0004F4FEA01314FF4801C98
:100298004CEA113102D0404261EB410113F0004FAA
:1002A8004FEA03334CEA133302D0524263EB430361
:1002B80094EA050F00F0A780A4F10104D5F1200EFF
:1002C8000DDB02FA0EFC22FA05F2801841F100015A
:1002D80003FA0EF2801843FA05F359410EE0A5F12E
:1002E80020050EF1200E012A03FA0EFC28BF4CF05F
:1002F800020C43FA05F3C01851EBE37101F0004515
:1003080007D54FF0000EDCF1000C7EEB00006EEB21
:100318000101B1F5801F1BD3B1F5001F0CD34908AB
:100328005FEA30004FEA3C0C04F101044FEA445202
:1003380012F5800F80F09A80BCF1004F08BF5FEA89
:10034800500C50F1000041EB045141EA050130BD69
:100358005FEA4C0C404141EB0101013C28BFB1F57B
:10036800801FE9D291F0000F04BF01460020B1FAC6
:1003780081F308BF2033A3F10B03B3F120020CDA99
:100388000C3208DD02F1140CC2F10C0201FA0CF077
:1003980021FA02F10CE002F11402D8BFC2F1200CDC
:1003A80001FA02F120FA0CFCDCBF41EA0C01904092
:1003B800E41AA2BF01EB0451294330BD6FEA0404DB
:1003C8001F3C1CDA0C340EDC04F11404C4F12002C6
:1003D80020FA04F001FA02F340EA030021FA04F3D8
:1003E80045EA030130BDC4F10C04C4F1200220FA2F
:1003F80002F001FA04F340EA0300294630BD21FA6D
:1004080004F0294630BD94F0000F83F4801306BF32
:1004180081F480110134013D4EE77FEA645C18BF26
:100428007FEA655C29D094EA050F08BF90EA020FBD
:1004380005D054EA000C04BF1946104630BD91EAB5
:10044800030F1EBF0021002030BD5FEA545C05D1B8
:100458004000494128BF41F0004130BD14F58004F7
:100468003CBF01F5801130BD01F0004545F0FE416B
:1004780041F470014FF0000030BD7FEA645C1ABFA0
:10048800194610467FEA655C1CBF0B46024650EAD7
:10049800013406BF52EA033591EA030F41F4002103
:1004A80030BD00BF90F0000F04BF0021704730B589
:1004B8004FF4806404F132044FF000054FF000015E
:1004C80050E700BF90F0000F04BF0021704730B51F
:1004D8004FF4806404F1320410F0004548BF4042F4
:1004E8004FF000013EE700BF42004FEAE2014FEA49
:1004F80031014FEA02701FBF12F07F4393F07F4F24
:1005080081F06051704732F07F4208BF704793F026
:100518007F4F04BF41F40021704730B54FF4607439
:1005280001F0004521F000411CE700BF50EA01023C
:1005380008BF704730B54FF000050AE050EA0102E5
:1005480008BF704730B511F0004502D5404261EB55
:1005580041014FF4806404F132045FEA915C3FF496
:10056800D8AE4FF003025FEADC0C18BF03325FEA33
:10057800DC0C18BF033202EBDC02C2F1200300FAE4
:1005880003FC20FA02F001FA03FE40EA0E0021FA09
:1005980002F11444BDE600BF70B54FF0FF0C4CF4F7
:1005A800E06C1CEA11541DBF1CEA135594EA0C0FA9
:1005B80095EA0C0F00F0DEF82C4481EA030621EAE4
:1005C8004C5123EA4C5350EA013518BF52EA03351F
:1005D80041F4801143F4801338D0A0FB02CE4FF0D1
:1005E8000005E1FB02E506F00042E0FB03E54FF001
:1005F8000006E1FB03569CF0000F18BF4EF0010EF9
:10060800A4F1FF04B6F5007F64F5407404D25FEAF4
:100618004E0E6D4146EB060642EAC62141EA5551A7
:100628004FEAC52040EA5E504FEACE2EB4F1FD0CE9
:1006380088BFBCF5E06F1ED8BEF1004F08BF5FEA67
:10064800500E50F1000041EB045170BD06F0004619
:1006580046EA010140EA020081EA0301B4EB5C04C6
:10066800C2BFD4EB0C0541EA045170BD41F48011BE
:100678004FF0000E013C00F3AB8014F1360FDEBFE3
:10068800002001F0004170BDC4F10004203C35DABF
:100698000C341BDC04F11404C4F1200500FA05F342
:1006A80020FA04F001FA05F240EA020001F00042E3
:1006B80021F0004110EBD37021FA04F642EB060159
:1006C8005EEA430E08BF20EAD37070BDC4F10C0483
:1006D800C4F1200500FA04F320FA05F001FA04F247
:1006E80040EA020001F0004110EBD37041F1000133
:1006F8005EEA430E08BF20EAD37070BDC4F120053E
:1007080000FA05F24EEA020E20FA04F301FA05F2A5
:1007180043EA020321FA04F001F0004121FA04F24D
:1007280020EA020000EBD3705EEA430E08BF20EA1D
:10073800D37070BD94F0000F0FD101F00046400057
:1007480041EB010111F4801F08BF013CF7D041EAD9
:10075800060195F0000F18BF704703F000465200DD
:1007680043EB030313F4801F08BF013DF7D043EAAE
:100778000603704794EA0C0F0CEA135518BF95EA64
:100788000C0F0CD050EA410618BF52EA4306D1D1EB
:1007980081EA030101F000414FF0000070BD50EA0A
:1007A800410606BF1046194652EA430619D094EA94
:1007B8000C0F02D150EA013613D195EA0C0F05D17E
:1007C80052EA03361CBF104619460AD181EA0301D2
:1007D80001F0004141F0FE4141F470014FF000008A
:1007E80070BD41F0FE4141F4780170BD70B54FF025
:1007F800FF0C4CF4E06C1CEA11541DBF1CEA1355A5
:1008080094EA0C0F95EA0C0F00F0A7F8A4EB050486
:1008180081EA030E52EA03354FEA013100F088807D
:100828004FEA03334FF0805545EA131343EA126346
:100838004FEA022245EA111545EA10654FEA0026FB
:100848000EF000419D4208BF964244F1FD0404F5B4
:10085800407402D25B084FEA3202B61A65EB030510
:100868005B084FEA32024FF480104FF4002CB6EBCD
:10087800020E75EB030E22BFB61A754640EA0C004D
:100888005B084FEA3202B6EB020E75EB030E22BF8D
:10089800B61A754640EA5C005B084FEA3202B6EBCE
:1008A800020E75EB030E22BFB61A754640EA9C008D
:1008B8005B084FEA3202B6EB020E75EB030E22BF5D
:1008C800B61A754640EADC0055EA060E18D04FEA1B
:1008D800051545EA16754FEA06164FEAC30343EABB
:1008E80052734FEAC2025FEA1C1CC0D111F4801F88
:1008F8000BD141EA00014FF000004FF0004CB6E781
:1009080011F4801F04BF01430020B4F1FD0C88BF1F
:10091800BCF5E06F3FF6AFAEB5EB030C04BFB6EB2A
:10092800020C5FEA500C50F1000041EB045170BD1D
:100938000EF0004E4EEA113114EB5C04C2BFD4EB4A
:100948000C0541EA045170BD41F480114FF0000ECE
:10095800013C90E645EA060E8DE60CEA135594EA4A
:100968000C0F08BF95EA0C0F3FF43BAF94EA0C0F4D
:100978000AD150EA01347FF434AF95EA0C0F7FF4C2
:1009880025AF104619462CE795EA0C0F06D152EA16
:1009980003353FF4FDAE1046194622E750EA4106FA
:1009A80018BF52EA43067FF4C5AE50EA41047FF40B
:1009B8000DAF52EA43057FF4EBAE12E74A0011D2BD
:1009C80012F5001211D20DD56FF47873B3EB6252A1
:1009D8000ED44FEAC12343F0004343EA505323FAAD
:1009E80002F070474FF00000704750EA013002D122
:1009F8004FF0FF3070474FF00000704780F0004024
:100A080002E000BF81F0004142001FBF5FEA4103DE
:100A180092EA030F7FEA226C7FEA236C6AD04FEADE
:100A28001262D2EB1363C1BFD21841404840414023
:100A3800B8BF5B42192B88BF704710F0004F40F4D5
:100A4800000020F07F4018BF404211F0004F41F4F1
:100A5800000121F07F4118BF494292EA030F3FD0BD
:100A6800A2F1010241FA03FC10EB0C00C3F12003D0
:100A780001FA03F100F0004302D5494260EB40005F
:100A8800B0F5000F13D3B0F1807F06D340084FEACA
:100A9800310102F10102FE2A51D2B1F1004F40EBBF
:100AA800C25008BF20F0010040EA03007047490027
:100AB80040EB0000013A28BFB0F5000FEDD2B0FAC4
:100AC80080FCACF1080CB2EB0C0200FA0CF0AABFE7
:100AD80000EBC25052421843BCBFD0401843704785
:100AE80092F0000F81F4000106BF80F4000001328B
:100AF800013BB5E74FEA41037FEA226C18BF7FEA62
:100B0800236C21D092EA030F04D092F0000F08BFA3
:100B18000846704790EA010F1CBF0020704712F08A
:100B28007F4F04D1400028BF40F00040704712F1C9
:100B380000723CBF00F50000704700F0004343F02E
:100B4800FE4040F4000070477FEA226216BF084664
:100B58007FEA23630146420206BF5FEA412390EA27
:100B6800010F40F4800070474FF0000304E000BF1D
:100B780010F0004348BF40425FEA000C08BF7047CE
:100B880043F0964301464FF000001CE050EA010292
:100B980008BF70474FF000030AE000BF50EA0102A7
:100BA80008BF704711F0004302D5404261EB410194
:100BB8005FEA010C02BF84460146002043F0B643B9
:100BC80008BFA3F18053A3F50003BCFA8CF2083ADE
:100BD800A3EBC25310DB01FA02FC634400FA02FCE7
:100BE800C2F12002BCF1004F20FA02F243EB0200EE
:100BF80008BF20F00100704702F1200201FA02FC50
:100C0800C2F1200250EA4C0021FA02F243EB020042
:100C180008BF20EADC707047844641EA000313F0FD
:100C2800030349D1403A23D30B6803604B68436000
:100C38008B688360CB68C3600B6903614B69436150
:100C48008B698361CB69C3610B6A03624B6A436238
:100C58008B6A8362CB6AC3620B6B03634B6B436320
:100C68008B6B8363CB6BC36340304031403ADBD23C
:100C780030320BD30B6803604B6843608B6883602A
:100C8800CB68C36010301031103AF3D20C3205D360
:100C980051F8043B40F8043B043AF9D2043208D036
:100CA800D2071CBF11F8013B00F8013B01D30B88A8
:100CB80003806046704700BF082A13D38B07B1D062
:100CC80010F00303AED0C3F10403D21ADB071CBF34
:100CD80011F8013B00F8013BA4D331F8023B20F89E
:100CE800023B9FE7043AD9D3013A11F8013B00F8D7
:100CF800013BF9D20B7803704B7843708B78837083
:100D0800604670474FF0FF3C06E000BF4FF0010C13
:100D180002E000BF4FF0010C4DF804CD4FEA410C42
:100D28007FEA6C5C4FEA430C18BF7FEA6C5C1BD00F
:100D380001B050EA410C0CBF52EA430C91EA030F90
:100D480002BF90EA020F0020704710F1000F91EAED
:100D5800030F58BF994208BF90422CBFD8176FEABB
:100D6800E37040F0010070474FEA410C7FEA6C5C89
:100D780002D150EA013C07D14FEA430C7FEA6C5C90
:100D8800D6D152EA033CD3D05DF8040B704700BFBC
:100D98008446104662468C461946634600E000BF0A
:100DA80001B5FFF7B7FF002848BF10F1000F01BDDC
:100DB8004DF808EDFFF7F4FF0CBF012000205DF8A7
:100DC80008FB00BF4DF808EDFFF7EAFF34BF01202C
:100DD80000205DF808FB00BF4DF808EDFFF7E0FFC5
:100DE80094BF012000205DF808FB00BF4DF808ED16
:100DF800FFF7CEFF94BF012000205DF808FB00BF7D
:100E08004DF808EDFFF7C4FF34BF012000205DF85E
:100E180008FB00BF4FEA410C7FEA6C5C02D150EA44
:100E2800013C0AD14FEA430C7FEA6C5C02D152EADA
:100E3800033C02D14FF0000070474FF001007047AB
:100E48004FEA410212F5001215D211D56FF47873EA
:100E5800B3EB625212D94FEAC12343F0004343EA8D
:100E6800505311F0004F23FA02F018BF4042704768
:100E78004FF00000704750EA013005D111F00040F2
:100E880008BF6FF0004070474FF00000704700BF88
:100E980053B94AB9002908BF00281CBF4FF0FF31D9
:100EA8004FF0FF3000F06EB9ADF1080C6DE904CEDB
:100EB80000F006F8DDF804E0DDE9022304B070472D
:100EC8002DE9F047089E0D4604468E46002B40F05B
:100ED80083808A42174647D9B2FA82F34BB1C3F1ED
:100EE800200105FA03FE20FA01F19F4041EA0E0EA7
:100EF8009C404FEA1748BEFBF8FC1FFA87F908FB2D
:100F08001CE20CFB09F0210C41EA024290420AD98A
:100F1800BA180CF1FF3180F01881904240F2158127
:100F2800ACF1020C3A44121AB2FBF8F008FB10229A
:100F380000FB09F1A4B244EA0244A14209D93C19D0
:100F480000F1FF3280F00381A14240F200810238B3
:100F58003C44641A002140EA0C401EB10022DC40E7
:100F6800C6E90042BDE8F08702B9FFDEB2FA82F3B3
:100F7800002B4FD18D1A01214FEA124E1FFA82F829
:100F8800B5FBFEFC0EFB1C5508FB0CF0220C42EADC
:100F98000545A84207D97D190CF1FF3202D2A842B3
:100FA80000F2E98094462D1AB5FBFEF00EFB1055B1
:100FB80008FB00F8A4B244EA0544A04507D93C1947
:100FC80000F1FF3202D2A04500F2D9801046A4EB0E
:100FD800080440EA0C40C0E78B4208D9002E00F014
:100FE800B1800021C6E900050846BDE8F087B3FADC
:100FF80083F100294BD1AB4202D3824200F2B9807F
:10100800841A65EB030301209E46002EAAD0C6E988
:10101800004EA7E79F40C3F12002D1404FEA174E88
:10102800B1FBFEF01FFA87F80EFB101124FA02F24A
:101038009D4000FB08FC2A43150C45EA0145AC45D8
:1010480004FA03F409D97D1900F1FF3180F08F808B
:10105800AC4540F28C8002383D44A5EB0C05B5FB4D
:10106800FEF10EFB115C01FB08F995B245EA0C454F
:10107800A94507D97D1901F1FF3274D2A94572D962
:1010880002393D44A5EB090541EA004178E7C1F181
:1010980020078B4022FA07FC4CEA030C25FA07F4D8
:1010A8004FEA1C4EB4FBFEF91FFA8CF80EFB1944EC
:1010B80020FA07F309FB08FA8D401D432B0C43EA7D
:1010C8000444A24502FA01F200FA01F309D91CEB23
:1010D800040409F1FF3048D2A24546D9A9F1020912
:1010E8006444A4EB0A04B4FBFEF00EFB104400FBBE
:1010F80008FAADB245EA0444A24508D91CEB040439
:1011080000F1FF352DD2A2452BD90238644440EABC
:101118000940A0FB0289A4EB0A044C45C6464D468B
:1011280019D316D05EB1B3EB0E0264EB050404FAD2
:1011380007F722FA01F31F43CC40C6E900740021E7
:10114800BDE8F087314630460CE78C46EBE61046A2
:10115800FFE64345E6D2B8EB020E69EB0C05013811
:10116800E0E72846D3E711468CE78146B9E7084609
:1011780073E7084649E7ACF1020C3D4413E702382F
:101188003C4424E7704700BF10B504460E4B18785E
:101198004FF47A73B3FBF0F30C4A1068B0FBF3F02A
:1011A80000F096F868B90F2C01D901200AE0002256
:1011B80021464FF0FF3000F057F8054B1C60002027
:1011C80000E0012010BD00BF000000200800002042
:1011D8000400002008B5074A136843F010031360A1
:1011E800032000F02FF80F20FFF7CEFF01F03CFBA3
:1011F800002008BD00200240034A1168034B1B78F9
:101208000B441360704700BFD40900200000002081
:10121800014B1868704700BFD409002038B5044650
:10122800FFF7F6FF0546B4F1FF3F02D0044B1B78E9
:101238001C44FFF7EDFF401BA042FAD338BD00BFA6
:1012480000000020074AD36823F4E0631B041B0C4A
:10125800000200F4E060034343F0BF6343F400334B
:10126800D360704700ED00E030B4174BDB68C3F380
:101278000223C3F10704042C28BF04241D1D062DD6
:1012880018D9033B4FF0FF3505FA04F421EA0401AD
:10129800994005FA03F322EA0303194300280BDBFC
:1012A8000901C9B200F1604000F5614080F80013FF
:1012B80030BC70470023E5E700F00F000901C9B210
:1012C800024B1954F4E700BF00ED00E014ED00E014
:1012D8000138B0F1807F0AD2064B5860064AF021E7
:1012E80082F823100020986007221A6070470120B6
:1012F800704700BF10E000E000ED00E0F0B482B0FD
:1013080000252C46ABE0854FBB4210D007D9844F4F
:10131800BB420CD007F58037BB4208D013E0A7F5D5
:101328008017BB4203D007F57027BB4207D18B68F3
:10133800002B60D0012B59D04261082503E0A7F5A6
:101348008017BB42F3D0FF2E57D88446FF2E57D8BC
:10135800A200DCF800300F27974023EA070305FABC
:1013680002F21343CCF800304B6813F0805F75D05D
:101378006C4B9A6942F001029A619B6903F0010380
:101388000193019BA208971C674B53F827C004F0F0
:1013980003039F000F23BB402CEA030C634B9842C6
:1013A80034D003F58063984200F0948003F580639D
:1013B800984200F0918003F58063984200F08E8097
:1013C80003F58063984200F08B8003F580639842B0
:1013D8001AD006231BE0CD68B5E7CD680435B2E71F
:1013E800CD680835AFE7CD680C35ACE70261082554
:1013F800A9E70025A7E70425A5E700F1040CA5E760
:10140800A4F108029200A4E7052300E00023BB40F2
:1014180043EA0C030232444F47F822304B6813F476
:10142800801F5FD0424A9368334393604B6813F43C
:10143800001F5DD03E4AD3683343D3604B6813F432
:10144800003F5BD03A4A5368334353604B6813F408
:10145800803F59D0364A13681E43166001340B6822
:1014680033FA04F256D00122A24003EA020632EA15
:101478000303F3D14B68122B3FF645AF122B3FF60F
:1014880062AF01A757F823F037130008DF130008ED
:10149800E9130008FB1300084F1300084F13000856
:1014A8004F1300084F1300084F1300084F1300088C
:1014B8004F1300084F1300084F1300084F1300087C
:1014C8004F1300084F1300084F130008E3130008D8
:1014D800EF13000801239AE7022398E7032396E70E
:1014E800042394E7124A936823EA060393609DE76E
:1014F8000F4AD36823EA0603D3609FE70C4A536870
:1015080023EA06035360A1E7094A136823EA06069B
:101518001660A3E702B0F0BC704700BF00002210BD
:101528000000311000100240000001400008014096
:10153800000401408368194201D00120704700204F
:1015480070470AB1016170470904016170470000E2
:10155800002800F0CC80F8B5044690F83D30002B08
:1015680077D0242384F83D302268136823F00103E0
:1015780013602268136843F40043136022681368F9
:1015880023F40043136000F0CBFB62685A4B9A4285
:1015980064D85A4B98428CBF00230123002B40F09B
:1015A800A880574DA5FB0035AF0C2668716821F05F
:1015B8003F0141EA9541716021680B6A23F03F03BE
:1015C80065684D4A95424FD87A1C13430B622568CB
:1015D800E96921F44F4121F0FF016368464A9342CB
:1015E8004CD801385B00B0FBF3F0013040F6FC73D7
:1015F800184278D0C0F30B030B43EB6121680B68EA
:1016080023F0C003E269206A024313430B60216898
:101618008B6823F4034323F0FF032269E068024345
:1016280013438B602168CB6823F0FF036269A069CC
:1016380002431343CB602268136843F0010313602D
:1016480000202064202384F83D30206384F83E0085
:10165800F8BD80F83C3001F039F882E7294B984210
:101668008CBF0023012399E74FF4967202FB07F21F
:10167800254DA5FB025292090132A6E7A268BAB924
:10168800461E03EB4307B6FBF7F60136C6F30B0617
:10169800B6FA86F6760946BBC2B9421E03EB430387
:1016A800B2FBF3F20132C2F30B0242F40043A3E7A8
:1016B800461E03EB830707EB8707B6FBF7F60136F1
:1016C800C6F30B06B6FA86F67609E4E7421E03EB84
:1016D800830303EB8303B2FBF3F20132C2F30B0281
:1016E80042F4404388E7042386E7012384E7012086
:1016F80070470120ACE700BFA08601007F841E0070
:1017080083DE1B43FF083D00D34D6210014B0122CD
:101718001A60704720000E4282B0084B1B68084AC6
:10172800A2FB03235B0A00FB03F3019300BF019BA9
:101738005A1E0192002BF9D102B070470800002010
:10174800D34D6210002800F0F18170B582B00446D4
:10175800036813F0010F2CD0AA4B5B6803F00C034D
:10176800042B1DD0A74B5B6803F00C03082B12D089
:101778006368B3F5803F41D0002B55D103F1804316
:1017880003F504331A6822F480321A601A6822F4C6
:1017980080221A6037E09B4B5B6813F4803FE7D0E8
:1017A800984B1B6813F4003F03D06368002B00F0CC
:1017B800BF81236813F0020F75D0924B5B6813F05A
:1017C8000C0F5FD08F4B5B6803F00C03082B54D0D1
:1017D8002369002B00F089808B4B01221A60FFF7E8
:1017E80017FD0546874B1B6813F0020F74D1FFF7EE
:1017F8000FFD401B0228F5D903209EE1814A13689A
:1018080043F480331360636843B3FFF701FD054673
:101818007C4B1B6813F4003FCBD1FFF7F9FC401B4E
:101828006428F5D9032088E1B3F5A02F09D0754BBA
:101838001A6822F480321A601A6822F480221A6028
:10184800E1E703F18043A3F53C331A6842F48022B0
:101858001A601A6842F480321A60D4E7FFF7D8FC9D
:101868000546684B1B6813F4003FA2D0FFF7D0FC75
:10187800401B6428F5D903205FE1624B5B6813F4D1
:10188800803FA5D15F4B1B6813F0020F03D023697B
:10189800012B40F04F815B4A136823F0F80361691C
:1018A80043EAC1031360236813F0080F32D0A36919
:1018B800002B45D0554B01221A60FFF7A9FC0546BD
:1018C800504B5B6A13F0020F21D1FFF7A1FC401BBC
:1018D8000228F5D9032030E14A4A136823F0F803B7
:1018E800616943EAC1031360DDE7474B00221A60D0
:1018F800FFF78EFC0546434B1B6813F0020FD2D04E
:10190800FFF786FC401B0228F5D9032015E10120CA
:10191800FFF702FF236813F0040F00F09780394B9C
:10192800DB6913F0805F1DD1364BDA6942F08052D3
:10193800DA61DB6903F080530193019B012512E012
:10194800324B00221A60FFF763FC05462D4B5B6A99
:1019580013F0020FDED0FFF75BFC401B0228F5D91D
:101968000320EAE000252A4B1B6813F4807F11D07E
:10197800E368012B22D0002B38D103F1804303F513
:1019880004331A6A22F001021A621A6A22F0040267
:101998001A6218E01E4A136843F480731360FFF755
:1019A80037FC06461A4B1B6813F4807FE0D1FFF71B
:1019B8002FFC801B6428F5D90320BEE0114A136A66
:1019C80043F001031362E36873B3FFF721FC064693
:1019D8000C4B1B6A13F0020F37D1FFF719FC801B61
:1019E80041F288339842F3D90320A6E0052B11D0A1
:1019F800044B1A6A22F001021A621A6A22F00402DF
:101A08001A62E0E7001002400000424280044242AD
:101A1800007000404D4B1A6A42F004021A621A6ABA
:101A280042F001021A62CEE7FFF7F2FB0646474B87
:101A38001B6A13F0020F08D0FFF7EAFB801B41F284
:101A480088339842F3D9032077E0E5B9E369002B9E
:101A580072D03E4A526802F00C02082A56D0022B75
:101A680017D03B4B00221A60FFF7D2FB0446374BD6
:101A78001B6813F0007F47D0FFF7CAFB001B022842
:101A8800F5D9032059E0314AD36923F08053D36153
:101A9800DCE72F4B00221A60FFF7BAFB05462B4BF9
:101AA8001B6813F0007F06D0FFF7B2FB401B02282B
:101AB800F5D9032041E0236AB3F5803F1AD02349C2
:101AC8004B6823F47413226A606A024313434B6021
:101AD8001F4B01221A60FFF79BFB04461B4B1B6838
:101AE80013F0007F0ED1FFF793FB001B0228F5D9F6
:101AF800032022E0154A536823F40033A1680B43FE
:101B08005360DCE7002018E0002016E0012B16D017
:101B18000E4B5B6803F48031226A914211D103F4C1
:101B28007013626A93420ED1002006E001207047CC
:101B3800012002E0012000E0002002B070BD012079
:101B4800FBE70120F9E70120F7E700BF001002409A
:101B5800600042420F4B5B6803F00C02082A01D078
:101B68000D487047C3F383420C498A5C13F4803FE5
:101B78000BD0084B5B68C3F340430949CB5C06486C
:101B880000FB02F0B0FBF3F07047064800FB02F0E0
:101B9800704700BF0010024000127A00D07A000897
:101BA800E07A000800093D00002800F0A08070B528
:101BB8000D460446524B1B6803F007038B420BD2B9
:101BC8004F4A136823F007030B431360136803F0AD
:101BD80007038B4240F08D80236813F0020F17D063
:101BE80013F0040F04D0474A536843F4E06353608A
:101BF800236813F0080F04D0424A536843F4605333
:101C08005360404A536823F0F003A1680B435360C4
:101C1800236813F0010F31D06368012B20D0022B09
:101C280025D0384A126812F0020F64D035494A6844
:101C380022F0030213434B60FFF7EAFA0646314BE2
:101C48005B6803F00C036268B3EB820F16D0FFF7F2
:101C5800DFFA801B41F288339842F0D9032045E02F
:101C6800284A126812F4003FE0D101203EE0254ADC
:101C7800126812F0007FD9D1012037E0204B1B6891
:101C880003F00703AB420AD91D4A136823F0070380
:101C98002B431360136803F00703AB422DD123686D
:101CA80013F0040F06D0174A536823F4E063E16881
:101CB8000B435360236813F0080F07D0114A536889
:101CC80023F46053216943EAC1035360FFF742FFDD
:101CD8000C4B5B68C3F303130B4AD35CD8400B4B24
:101CE80018600B4B1868FFF74FFA002070BD0120F1
:101CF80070470120FAE70120F8E70120F6E700BF66
:101D08000020024000100240207B0008080000204C
:101D180004000020014B1868704700BF080000202D
:101D280008B5FFF7F7FF044B5B68C3F30223034AC8
:101D3800D35CD84008BD00BF00100240307B0008CB
:101D480008B5FFF7E7FF044B5B68C3F3C223034AF8
:101D5800D35CD84008BD00BF00100240307B0008AB
:101D680070B582B00446036813F0010F34D03E4BBF
:101D7800DB6913F0805F47D13B4BDA6942F0805250
:101D8800DA61DB6903F080530193019B0125374B2E
:101D98001B6813F4807F39D0334B1B6A13F44073EC
:101DA80011D0626802F440729A420CD02E4A136A2B
:101DB80023F440702E4901260E6000260E60106242
:101DC80013F0010F36D1284A136A23F4407361686F
:101DD8000B431362002D3ED1236813F0020F06D087
:101DE800214A536823F44043A1680B435360236896
:101DF80013F0100F34D01C4A536823F48003616930
:101E08000B43536000202CE00025C0E7174A1368F5
:101E180043F480731360FFF7FBF90646134B1B6806
:101E280013F4807FB8D1FFF7F3F9801B6428F5D944
:101E3800032016E0FFF7ECF906460B4B1B6A13F07C
:101E4800020FC0D1FFF7E4F9801B41F288339842B2
:101E5800F3D9032005E0D36923F08053D361BBE7AE
:101E6800002002B070BD00BF0010024000700040AA
:101E78004004424208B501380F2863D8DFE800F073
:101E88003557622F6262623262626262626262081F
:101E98002F4B5A68186810F0807054D0C2F38343EF
:101EA8002C49C85C12F4803F15D0294B5B68C3F3FA
:101EB8004043294AD25C294BB3FBF2F300FB03F001
:101EC800234B5B6813F4800F3DD14000244BA3FBE8
:101ED8000030400837E0234B03FB00F0F0E7FFF742
:101EE80039FE30E0FFF736FE2DE0194B1B6A40F251
:101EF80002321A40B2F5817F26D003F44073B3F55D
:101F0800007F04D0B3F5407F09D000201BE0104AC1
:101F1800526A12F0020FF5D049F6404013E00C4B1C
:101F2800186810F400300ED04FF224400BE0FFF791
:101F380007FF074B5B68C3F3813301335B00B0FBDA
:101F4800F3F000E0002008BD4FF40040FBE700BFBD
:101F580000100240E47A0008F47A000800127A00BF
:101F6800ABAAAAAA00093D0038B50446FFF750F904
:101F7800054623685A6812F0200F07D1FFF748F981
:101F8800401BB0F57A7FF4D9032004E05A6842F088
:101F980010025A60002038BD38B5044602685368FC
:101FA80023F010035360FFF733F9054623685B6895
:101FB80013F0200F07D1FFF72BF9401BB0F57A7FFC
:101FC800F4D9032000E0002038BDC0B138B505467B
:101FD8000268536823F008035360FFF719F90446B1
:101FE8002B685B6813F0080F07D1FFF711F9001B86
:101FF800B0F57A7FF4D9032000E0002038BD012035
:1020080070470000002850D010B50446437C4BB1FF
:10201800022363742046FFF7D8FF38B104236374A2
:10202800012010BD037400F0FFFBF1E72046FFF725
:102038009BFF28BB2268536823F007035360A368FB
:1020480023B11B4A136B23F001031363184AD36AA5
:1020580023F46073A1680B43D3626368B3F1FF3F55
:1020680012D02268C3F30341916022689BB2D36007
:102078002046FFF791FF88B1042363740120D0E75D
:10208800042363740120CCE70120FFF7F3FE08B1B5
:10209800431EE6E7042363740120C2E70023E373C9
:1020A80001236373A3736374BBE70120704700BF08
:1020B800006C004010B504460268136923F44053CD
:1020C800C1680B43136183680269134342691A4369
:1020D8000168CB6823F4B05323F00C031343CB609F
:1020E8000268536923F4407381690B4353610268A2
:1020F800124B9A421FD0FFF713FE00EB800303EB4D
:10210800830362689200B3FBF2F20D48A0FB023130
:102118004909642303FB11231B013233A0FB03236A
:102128005B0903F0F00202EB011203F00F032168D0
:1021380013448B6010BDFFF703FEDEE70038014053
:102148001F85EB512DE9F84305460F46164699467B
:10215800DDF820802C68246837EA04030CBF0124CA
:102168000024B4422DD1B8F1FF3FF3D0B8F1000FED
:1021780005D0FFF74DF8A0EB09004045EAD92A68D9
:1021880002F10C0353E8003F23F4D0730C3242E809
:1021980000310029F3D12A6802F1140353E8003F03
:1021A80023F00103143242E800310029F3D120233F
:1021B80085F8413085F84230002385F84030032007
:1021C80000E00020BDE8F88360B310B5044690F83D
:1021D800413013B3242384F841302268D36823F4B0
:1021E8000053D3602046FFF765FF2268136923F484
:1021F800904313612268536923F02A0353612268CC
:10220800D36843F40053D36000206064202384F82B
:10221800413084F84230606310BD80F8403000F0EF
:10222800B5FBD7E7012070472DE9F04182B01E4683
:1022380090F84130DBB2202B4BD104460D46904636
:1022480000294AD00AB9012044E00023436421232D
:1022580080F84130FEF7DCFF0746A4F82480A4F894
:102268002680A368B3F5805F02D04FF000080FE026
:102278002369FBB14FF000080AE038F8023B2268F6
:10228800C3F308035360E28C92B2013A92B2E2843B
:10229800E38C9BB28BB100963B46002280212046FE
:1022A800FFF750FFD8B9002DE7D015F8012B2368A8
:1022B8005A60E8E7A8460025EAE700963B46002270
:1022C80040212046FFF73EFF58B9202384F84130CB
:1022D80000E0022002B0BDE8F0810120FAE7032007
:1022E800F8E70320F6E7431E9BB2002849D000BF59
:1022F80000BF00BF00BF00BF00BF00BF00BF00BFDE
:1023080000BF00BF00BF00BF00BF00BF00BF00BFCD
:1023180000BF00BF00BF00BF00BF00BF00BF00BFBD
:1023280000BF00BF00BF00BF00BF00BF00BF00BFAD
:1023380000BF00BF00BF00BF00BF00BF00BF00BF9D
:1023480000BF00BF00BF00BF00BF00BF00BF00BF8D
:1023580000BF00BF00BF00BF00BF00BF00BF00BF7D
:1023680000BF00BF00BF00BF00BF00BF00BF00BF6D
:1023780000BF00BF00BF00BF00BF00BF00BF1846BE
:10238800B1E7704710B50E4C012280212046FFF7B7
:10239800D8F8012240212046FFF7D3F80520FFF79F
:1023A800A2FF002280212046FFF7CBF80520FFF787
:1023B8009AFF002240212046FFF7C3F810BD00BF56
:1023C800000C014010B50B4C002280212046FFF77D
:1023D800B8F8012240212046FFF7B3F80520FFF79F
:1023E80082FF012280212046FFF7ABF80520FFF786
:1023F8007AFF10BD000C014010B584B00446C0231C
:102408000093012301930223039369461148FEF7C1
:1024180075FF012C18D0ACB9002280210D48FFF7B8
:1024280090F80C4C012240212046FFF78AF805203D
:10243800FFF759FF002240212046FFF782F80520C8
:10244800FFF751FF04B010BD012280210148FFF7BA
:1024580078F8E6E7000C014030B585B00023019319
:102468000223039380250095164C69462046FEF703
:1024780045FF012240212046FFF763F80520FFF7BA
:1024880032FF29462046FFF755F8012815D00E4B94
:1024980000221A700B4C002240212046FFF751F809
:1024A8000520FFF720FF0123019369462046FEF728
:1024B80025FF054B187805B030BD034B01221A7073
:1024C800E8E700BF000C0140DB09002070B50446B6
:1024D800002519E0012280211248FFF732F8640034
:1024E800E4B2104E012240213046FFF72AF80520B9
:1024F800FFF7F9FE002240213046FFF722F80520B9
:10250800FFF7F1FE0135EDB2072D08D814F0800F62
:10251800E0D1002280210348FFF713F8DFE7FFF737
:102528009BFF70BD000C014008B5FFF72BFF46204C
:10253800FFF7CCFF0120FFF7C9FFFFF743FF08BDF6
:1025480010B50446FFF71EFF4620FFF7BFFF2046E1
:10255800FFF7BCFFFFF736FF10BD000070B584B071
:102568000025019580260096022303931A4C69469C
:102578002046FEF7C3FE012231462046FEF7E1FF62
:102588002C460BE02043C4B2002240211248FEF73B
:10259800D8FF0520FFF7A7FE0135EDB2072D12D8A9
:1025A8006400E4B20C4E012240213046FEF7C9FF18
:1025B8000520FFF798FE80213046FEF7BBFF012873
:1025C800E0D00020DEE70123019369460248FEF7C8
:1025D80095FE204604B070BD000C014010B5FFF711
:1025E800D1FE4720FFF772FF002404E00120FFF727
:1025F80003FF0134E4B2022C09D8FFF7AFFF054B03
:102608001855032CF2D00020FFF7F6FEF1E7FFF78C
:10261800D9FE10BDD809002008B50120FFF790FFAA
:102628001020FFF78DFFB420FEF7F8FDFFF7D6FF67
:10263800094B1A78587800EB022080B2FEF794FA1A
:10264800FDF752FF4FF03332044BFEF7CFF8FEF799
:10265800B5F980B208BD00BFD80900203333F33F75
:1026680082B00A4B9A6942F004029A619A6902F0B0
:1026780004020092009A9A6942F008029A619B69E2
:1026880003F008030193019B02B070470010024059
:1026980008B50B480B4B03600B4B4360002383606A
:1026A800C3604FF48042026143618361C361036286
:1026B800FEF74EFF00B908BD00F03AF8FBE700BF8F
:1026C800DC09002000540040A086010010B586B047
:1026D800002302930393049305930268114B9A42D3
:1026E80001D006B010BD104CA36943F00803A361E4
:1026F800A36903F008030093009BC02302931223ED
:1027080003930323059302A90848FEF7F7FDE3693D
:1027180043F40013E361E36903F400130193019B9D
:10272800DFE700BF0054004000100240000C0140E9
:1027380072B6FEE700B597B000230F931193079385
:10274800089309930A930B930193029303930493B9
:102758000593069309220C924FF480320D920E9342
:102768000123109312930223139314924FF4E0134E
:1027780015930CA8FEF7E6FFC8B90F2307930221AB
:102788000891002309934FF480620A920B9307A8DB
:10279800FFF70AFA68B9012301934FF40073029313
:1027A80001A8FFF7DDFA30B917B05DF804FBFFF7B1
:1027B800BFFFFFF7BDFFFFF7BBFF000008B5FEF73F
:1027C80009FDFFF7B7FFFFF74BFFFFF761FF00F0C9
:1027D80015F800F0C1F8FFF7A7FEFFF71DFF014647
:1027E800044800F0BFF900220023034800F0BAF9BA
:1027F800F3E700BFF87A00080C7B000808B5084822
:10280800084B03604FF0FF3343604FF480738360DD
:10281800FFF7F8FB00B908BDFFF78AFFFBE700BF29
:10282800300A00200028004002680C4B9A4200D071
:10283800704700B583B0FEF769FF094BDA6942F0CB
:102848000062DA61DB6903F000630193019B054BC9
:1028580001221A6003B05DF804FB00BF00280040A5
:10286800001002403C04424282B00E4B9A6942F08A
:1028780001029A619A6902F001020092009ADA69EB
:1028880042F08052DA61DB6903F080530193019BC7
:10289800054A536823F0E06343F00073536002B0C5
:1028A800704700BF0010024000000140FEE7FEE74D
:1028B800FEE7FEE7FEE770477047704708B5FEF78A
:1028C8009BFC08BD70B50C4616460025B54207DAD4
:1028D800AFF30080214601F8010B01350C46F5E7FE
:1028E800304670BD70B50C4616460025B54205DA6F
:1028F80014F8010B00F086F80135F7E7304670BD93
:1029080008B503460B4A126842B10A4A10680344E4
:102918006A46934206D8074A136008BD054A064925
:102928001160F2E700F0A4F80C2303604FF0FF30C9
:10293800F3E700BF440A0020F00A00204FF0FF3000
:1029480070474FF400534B600020704701207047D8
:10295800002070477047000008B50A480A4B03601A
:102968004FF4E133436000238360C36003610C22AA
:1029780042618361C361FFF727FC00B908BDFFF717
:10298800D7FEFBE7480A00200038014010B586B0A2
:10299800002302930393049305930268174B9A420A
:1029A80001D006B010BD03F558439A6942F480423D
:1029B8009A619A6902F480420092009A9A6942F0F8
:1029C80004029A619B6903F004030193019B4FF48D
:1029D800007302930223039303230593084C02A96F
:1029E8002046FEF78BFC4FF4806302930023039389
:1029F800049302A92046FEF781FCD2E70038014083
:102A08000008014000B583B001904FF6FF73012222
:102A180001A90348FFF708FC019803B05DF804FB1F
:102A2800480A0020FFF796FF0B480C490C4A002380
:102A380002E0D458C4500433C4188C42F9D3094A6C
:102A4800094C002301E013600432A242FBD300F0DA
:102A580015F8FFF7B3FE704700000020B809002002
:102A6800D47D0008B8090020EC0A0020FEE7000029
:102A7800014B1868704700BF0C00002070B50D4E60
:102A88000D4D761BB61006D0002455F8043B0134D2
:102A98009847A642F9D1094E094D05F007F8761B6B
:102AA800B61006D0002455F8043B01349847A642D6
:102AB800F9D170BDC87D0008C87D0008D07D000828
:102AC800C87D0008F0B4860746D0541E002A3CD0C2
:102AD8000346CAB201E0013C37D303F8012B9D0736
:102AE800F9D1032C2AD9CDB245EA05250F2C45EAA0
:102AF800054534D9A4F1100222F00F0C03F1200788
:102B08001609674403F1100242E9045542E90255E7
:102B18001032BA42F8D1721C14F00C0F03EB0212F7
:102B280004F00F0613D0331F23F0030304331344B8
:102B380042F8045B9342FBD106F003042CB1CAB2FD
:102B48001C4403F8012B9C42FBD1F0BC704734466F
:102B58001346002CF3D1F8E714460346C1E71A469A
:102B68002646E0E70FB400B5074983B004AB086810
:102B780053F8042B8168019300F008F803B05DF85E
:102B880004EB04B0704700BF0C0000202DE9F04FA3
:102B9800D7B01C468B461746814603F055F90368A3
:102BA8000E941846189304F08DF81790B9F1000F99
:102BB80004D0D9F83830002B00F0EA81DBF8643013
:102BC80013F0010FBBF90C309AB202D19D0540F108
:102BD800B58690040AD4DBF8642043F4005322F449
:102BE8000051ABF80C309AB2CBF86410110740F1E1
:102BF800BB80DBF81030002B00F0B68002F01A031F
:102C08000A2B00F0BF80002300210022CDE92B33DE
:102C1800CDE91A33CDE91C33139319930A932DABDD
:102C280098462A933B78DA46CDE91412002B00F037
:102C380060813C4604E014F8013F002B00F0B980A5
:102C4800252BF8D1E51B40F0B7802378002B00F046
:102C5800508100230B938DF88B3007934FF0FF338F
:102C6800667804F1010B20212B2409930BF1010B49
:102C7800A6F120035A2B00F2BB80DFE813F0EA022A
:102C8800B900B900E302B900B900B900BF02B90040
:102C9800B9006A005202B90033025E02B900570255
:102CA8005B005B005B005B005B005B005B005B0044
:102CB8005B00B900B900B900B900B900B900B900A2
:102CC8004201B900C1019401420142014201B90027
:102CD800B900B900B900AF02B900B900FB01B900E9
:102CE800B900B900D501B9007802B900B900B70731
:102CF800B900B900B900B900B900B900B900B90004
:102D08004201B900C1019801420142014201A502F4
:102D180098018D01B9009B02B9003A02FF018902AE
:102D28008D01B900D50172009207B900B900960764
:102D3800B90072000022A6F130031BF8016B02EB08
:102D4800820203EB4202A6F13003092BF5D90B925C
:102D58008EE70E9B53F8042B002A0B920E93C0F2B9
:102D6800BE819BF8006081E75946484601F05EFD48
:102D7800002841F09B83BBF80C2002F01A030A2BB1
:102D88007FF441AFBBF90E30002BFFF63CAFDBF808
:102D98006430DE0702D4950541F1808123463A4626
:102DA8005946484601F0FEFC0A900A9857B0BDE81B
:102DB800F08FE51B00F09D80DDE92B3201332A44BA
:102DC800072BC8E90075CDE92B3206DC08F10808A5
:102DD8000A9A23782A440A9238E7514648462AAA8A
:102DE80004F00EF8002841F00E840DF1B408EFE766
:102DF800002E7ED0002301211A4608918DF8F46038
:102E08008DF88B300D9309931293169310930C91B0
:102E18003DAF079B13F0020302D0089902310891D5
:102E2800079911F084010F9105D10B9908980D1A93
:102E3800002D00F39C832C9C72B101202B9A044432
:102E480002440DF18B01072ACDE92B24C8E90010B3
:102E580000F30B8408F108086BB102212B9B0C448A
:102E6800013323AA072BCDE92B34C8E9002100F34D
:102E78000B8408F108080F9B802B00F07882099BCF
:102E88000C9A9D1A002D00F3B282079BDD0500F114
:102E980019822B9B0C9A01331444072BC8E9007242
:102EA8002C942B9300F3D58308F10808079B5D0742
:102EB80005D50B9B089A9D1A002D00F3F283DDE9D6
:102EC8000A3208998A42ACBF9B185B180A93002CF7
:102ED80040F0C18200232B930D9B1BB148460D99EE
:102EE80002F088FE5F460DF1B4083B78002B7FF4B2
:102EF800A0AE2C9BD346002B40F0FB8700232B93DE
:102F0800B7E20E9B073323F007031946F1E80223C3
:102F1800CDE91423DDE9143424F000441D46184695
:102F28000E914FF0FF322146B04BFDF773FF00289A
:102F380040F06F85284621464FF0FF32AB4BFDF736
:102F48004BFF002840F06585DDE9140100220023CD
:102F5800FDF738FF002841F0E9809DF88B20032019
:102F68000021A34FA34B08900D91472EC8BF1F46C1
:102F7800079C0C9024F080040794099112911691F3
:102F88001091002A3FF445AF089B0133089340E7AE
:102F9800484602F08FFD11E6079B9BF8006043F05E
:102FA8002003079362E6079B43F010030793079BF0
:102FB8009C0640F18E840E9B073323F007031946C5
:102FC800F1E8022314461D460E91002A73F100030E
:102FD800C0F2F884099B0133079B00F0098323F0B2
:102FE800800354EA0502089340F00383099A002AF3
:102FF80040F004830793002356AF09930C9353E1E1
:10300800002101240E9B0A4653F8040B0894CDE9CD
:103018000D138DF88B108DF8F4000991129116910B
:1030280010910C943DAFF4E600250E9C8DF88B5062
:1030380054F8047B002F00F02386099A13460133C5
:1030480000F016872946384603F030FA0D9000281C
:1030580001F0A6812B460D9A0995D21B0C9222EA03
:10306800E27208920E949DF88B200D93129316939A
:10307800109386E7079B43F010030793079B9A0674
:1030880040F148840E9B073323F00703F3E8024519
:103098000E93079B23F480630893002300228DF886
:1030A8008B20099A1146013100F0DF80089921F040
:1030B8008001079154EA050140F0D580002A40F0CC
:1030C8003882002B97D1089B13F001030C9300F072
:1030D800658430230DF257178DF85731E4E00B9BC8
:1030E8005B420B93079B9BF8006043F00403079334
:1030F800BCE5079B9D0600F17084079BDC0600F188
:103108007B86079B580600F10687079B990540F1C7
:1031180073860E9B0A9953F8042B5F4611700E9321
:10312800E3E69BF800608DF88B409FE5079B9BF8D2
:10313800006043F08003079398E55A4612F8016B44
:103148002A2E01F00783A6F13003092B934698BF76
:10315800002201F26F811BF8016B02EB820203EB84
:103168004202A6F13003092BF5D9099280E5079BA5
:1031780043F010030893089B9D0640F1BB830E9B08
:10318800073323F00703F3E802450E93012385E78D
:1031980047F630020E9B079953F8044B41F00201A1
:1031A8000E93154B00251993782602230891ADF844
:1031B8008C2073E79BF80060079B6C2E00F041851C
:1031C80043F01003079351E59BF80060079B682EB6
:1031D80000F04D8543F04003079347E5079B9BF8B4
:1031E800006043F00803079340E500BFFFFFEF7F4F
:1031F8003C7B0008407B00084C7B0008484602F0F6
:1032080023FE436818461C9303F05CFD03464846BA
:103218001D461D9302F018FE826820211A92002D87
:103228003FF49FAD1A9B002B3FF49BAD1A9B1B7874
:10323800002B3FF496AD079B9BF8006043F4806336
:10324800079313E5079B9BF8006043F0010307937E
:103258000CE59DF88B30002B7FF483AD9BF8006064
:103268008DF88B1002E5079A0892012B00F0C181B6
:10327800022B00F0668156AFE20842EA4572E9087F
:1032880004F007030D461446303354EA05013A4664
:1032980007F8013DF0D108990846C00700F1D3822C
:1032A80056ABDB1B07910C93002309990D931293DE
:1032B800169310930C9B9DF88B208B42B8BF0B463E
:1032C80008935EE6652E40F3E580DDE914010022EF
:1032D8000023FDF76DFD002800F01B8201212B9BC8
:1032E800CB4A0B440C44072BCDE92B34C8E9002109
:1032F80000F3678508F10808249B139A934280F22B
:1033080018832B9B179A013318991444072BC8E983
:1033180000122C942B9300F39D8408F10808139B4A
:103328005D1E002D7FF7C2AD102D40F35785B94FB4
:1033380010262B9B0F9705E008F10808103D102D6B
:1033480040F34F8501331034072BCDE92B34C8E9FE
:103358000076F1DD514648462AAA03F051FD0028BF
:1033680040F08180DDE92B340DF1B408E6E70B9BD2
:10337800089A9D1A002D7FF782AD102D41F3A78082
:10338800A4482146102304462B9A0F9004E0103DD0
:10339800102D08F1080817DD01321031072ACDE990
:1033A8002B21C8E90043F2DD514648462AAA03F01A
:1033B80027FD002857D1DDE92B21103D102D4FF0B6
:1033C80010030DF1B408E7DC0C4601320F9B2C44C6
:1033D800072ACDE92B24C8E9003500F30A84099BA4
:1033E8000C9A08F108089D1A002D7FF74EAD102D94
:1033F80040F37A8587482146102304462B9A0F907C
:1034080004E0103D102D08F1080816DD01321031D6
:10341800072ACDE92B21C8E90043F2DD5146484689
:103428002AAA03F0EDFCF0B9DDE92B21103D102D9F
:103438004FF010030DF1B408E8DC0C4601320F9B85
:103448002C44072ACDE92B24C8E9003500F334823F
:1034580008F1080819E5514648462AAA03F0D0FCA5
:1034680000283FF437ADD3460D9911B1484602F014
:10347800C1FBDBF8643013F0010FBBF80C3002D14C
:10348800980540F17784590601F11C800A9857B0D5
:10349800BDE8F08F139B012B40F3B78101232B9DCF
:1034A8001C441D44072D2C94C8F800702B95C8F8AF
:1034B800043000F3FF8308F10808179B0135189AB8
:1034C8001C44072DCDE92B54C8E9002300F30084E0
:1034D80008F108080023DDE914010022FDF768FC63
:1034E800139B002840F0BD81013B013501371C4486
:1034F800072DCDE92B54C8F80070C8F8043000F344
:10350800938308F108081B9A0135144426AB072D4C
:10351800CDE92B54C8E900327FF7C6AC514648467E
:103528002AAA03F06DFC00289DD12C9C0DF1B4084B
:10353800BCE4012B00F0D087022B079B08937FF493
:103548009AAE199856AF230943EA0573290904F07E
:103558000F020D461C46835C07F8013D54EA05033B
:10356800F1D1089B079356ABDB1B0C939CE6102DFF
:1035780040F33887DDE92B211E930B46394610248A
:1035880037465646CA46894604E0103D102D08F1D4
:10359800080817DD013220491033072ACDE92B230B
:1035A800C8E90014F1DD314650462AAA03F028FC88
:1035B800002840F0F883DDE92B23103D102D0DF194
:1035C800B408E7DC4846D146B2463E4607461946A7
:1035D8001E9B6C1801321049072ACDE92B24C8E933
:1035E800001500F3CF839DF88B2008F1080823E429
:1035F8000893002D08BF0A2C80F07883089B30348C
:10360800079301238DF857410C930DF257174BE69A
:103618007C7B0008907B0008807B00082B9B179917
:10362800013318980C44072BC8E900012C942B93FC
:1036380000F3258508F10808002AC0F2FF86139ACE
:1036480001331444072BCDE92B34C8E900727FF706
:103658002BAC514648462AAA03F0D2FB00287FF437
:1036680002AF2C9C0DF1B40820E4514648462AAA22
:103678001E9303F0C5FB00287FF4F5AE2C9C1E9B1F
:103688000DF1B408FFF7E8BB514648462AAA03F0F3
:10369800B7FB00287FF4E7AE2C9C0DF1B408FFF7C8
:1036A800EABB102D40F3FF8610262B9B04E0103D4B
:1036B800102D08F1080817DD0133B94A1034072B1B
:1036C800CDE92B34C8E90026F1DD514648462AAA3F
:1036D80003F096FB00287FF4C6AEDDE92B34103DDD
:1036E800102D0DF1B408E7DC0133AD4A2C44072B4B
:1036F800CDE92B34C8E900257FF7E1AB51464846B0
:103708002AAA03F07DFB00287FF4ADAE2C9CFFF7BE
:10371800D6BB249A002A40F31A81109B139A93422D
:10372800A8BF1346002B1D460BDD2B9B2C440133F1
:10373800072BC8E900752C942B9300F3DB8508F15F
:103748000808109B002DA8BF5B1B002B1D4600F32B
:103758006783109B3B441E46079B590500F1018572
:10376800249B139A934203DB079AD20740F1CB8339
:103778002B9A1799013218980C44072AC8E90001B6
:103788002C942B9200F3C38508F10808139ABD18EE
:10379800AD1BD31A9D42A8BF1D46002D0BDD2B9AE9
:1037A8002C440132072AC8E900652C942B9200F3B7
:1037B8001D8608F10808002DB4BF1D465D1B002DAD
:1037C8007FF774AB102D40F30983764F10262B9B9F
:1037D8000F9705E008F10808103D102D40F301830C
:1037E80001331034072BCDE92B34C8E90076F1DD1D
:1037F800514648462AAA03F003FB00287FF433AE5B
:10380800DDE92B340DF1B408E6E7079BDE073FF549
:1038180045AE01232B9D1C441D44072D2C94C8F84C
:1038280000702B95C8F804307FF76BAE51464846B8
:103838002AAA03F0E5FA00287FF415AEDDE92B5437
:103848000DF1B4085FE6302B3FF48BAE3023023A1B
:1038580007F8013C089956AB9B1A174607910C9339
:1038680022E55E1E002E7FF74EAE102E40F34F87E6
:103878004C4BCDF824B01027D3460F93CA4699462F
:1038880005E008F10808103E102E40F3BF8101350D
:103898001034072DCDE92B54C8E90097F1DD5946BE
:1038A80050462AAA03F0ACFA002840F0EC85DDE97E
:1038B8002B540DF1B408E6E7514648462AAA03F00E
:1038C8009FFA00287FF4CFAD2C9C0DF1B408FFF7C8
:1038D800DCBA079BD80669D4079B590640F1F682E3
:1038E8000E9B53F8044B24B2E5170E9322462B4641
:1038F800FFF76BBB089BDC067CD4089B580640F19D
:10390800CA820E9A012352F8044B00250E92A4B2E3
:10391800FFF7C4BB079BDB0674D4079B5F0640F127
:10392800C9820E9B002553F8044B0E93A4B2FFF7EF
:10393800B0BB079BD8077FF5B9AAE2E4DBF85800CB
:1039480002F08AFABBF90C309AB2FFF742B90120AB
:103958002B9B154903440444072BCDE92B34C8E9B4
:10396800001000F3AC8408F10808002A7FF456AE72
:10397800079B139A03F0010313433FF497AA2B9B69
:10398800179A013318991444072BC8E900122C948C
:103998002B9300F3748308F1080850E656AF83E4CC
:1039A800807B0008907B00087C7B00080E9B53F806
:1039B800044B2246E5170E932B46002A73F10003A9
:1039C800BFF608AB2D23079A64428DF88B3065EB60
:1039D800450501230892FFF764BB0E9B5F4653F829
:1039E800041B0E930A9BDD171A462B46C1E90023D8
:1039F800FFF77BBA0E9A012352F8044B00250E926A
:103A0800FFF74CBB0E9B002553F8044B0E93FFF7B2
:103A180040BBDDE914010B460246FDF7FBF9014600
:103A2800002840F0DD85612E00F08285412E00F0EF
:103A38007B82099B26F020055A1C089500F0CC854E
:103A4800472D00F0A385DDE91401079B43F480733B
:103A580012930B46002BC0F2398600220F931E9258
:103A68000D920C90462D0C9A00F07A84452D4FF05B
:103A780002000F9B40F05984099900904C1C28A91A
:103A880025A8049124A9CDE902100194484600F024
:103A9800D7FF07460444129B079D07930022002383
:103AA8000C980F99FDF784F9002800F02B83234622
:103AB800DB1B1393089B472B00F0F682089B462BD1
:103AC80000F07A84249B1093109B089A013B412AAA
:103AD800249300F0F5850021F2B2002B8DF8982090
:103AE800B6BF2D222B22109B8DF89920B8BFC3F1A9
:103AF8000103092B40F3D5850DF1A70E72469C46AC
:103B0800C24C6046114684FB0C234FEAEC72C2EBB0
:103B1800A30202EB8203ACEB4303303363289446E1
:103B280001F8013C01F1FF32EBDC63463033D8B2D7
:103B38008B1E9E4502F8010C40F228860DF19A036F
:103B480001E012F8010B964503F8010BF9D10DF1CC
:103B5800A9030DF19A025B1A134426AA9B1A1B9318
:103B6800139B1B9A012B1A440C9240F3B2850C9BB1
:103B7800179A13440C9300231293169310930C9BDB
:103B880025F4806545F4807223EAE373079208936D
:103B98001E9B002B40F0AF829DF88B200993FFF706
:103BA800F0B9079B0893FFF7E6BA994B1993079B5F
:103BB800990675D50E9B073323F00703F3E80245F2
:103BC8000E93079AD7070AD554EA050307D030237E
:103BD80042F002028DF88D6007928DF88C30079ABA
:103BE800022322F480620892FFF758BA894B19938E
:103BF800DDE7514648462AAA03F002F900287FF477
:103C080032AC2C9C0DF1B408FFF739B9D146DA462D
:103C1800DDF824B001350F9B3444072DCDE92B5432
:103C2800C8E900367FF76DAC514648462AAA03F02A
:103C3800E7F800287FF417ACDDE92B540DF1B40840
:103C480061E443F020039BF8016007930BF1010B3B
:103C5800FFF70CB8514648462AAA03F0D1F80028C5
:103C68007FF401AC2C9C0DF1B408FFF758BB43F46A
:103C780000739BF8016007930BF1010BFEF7F6BF89
:103C8800099B3A46062B28BF0623099712971697D1
:103C980010970D970893604F0E940C93FFF771B926
:103CA800079BDA0640F183800E9B002553F8044BEE
:103CB8000E9386E7514648462AAA03F0A1F8002841
:103CC8007FF4D1ABDDE92B540DF1B408FFF7F5BB58
:103CD800514648462AAA03F093F800287FF4C3AB5C
:103CE800DDE92B540DF1B408FFF7F4BB0022089B63
:103CF800CDF81CB003F480630C96CDF834A093463D
:103D0800CA461E46C14656AFDDF868800BE00A2257
:103D1800002320462946FDF7BBF8002D08BF0A2CD2
:103D28001BD304460D460A22002320462946FDF7E8
:103D3800AFF8303207F8012C0BF1010B013F002ED0
:103D4800E5D098F800309B45E1D1BBF1FF0FDED0FC
:103D5800002D08BF0A2C80F0EF81CDF86880CDF8DF
:103D68004CB0C8460C9ED146DDF81CB0DDF834A036
:103D7800FFF7F7BBDBF8580002F070F8BBF80C301F
:103D8800FFF781BB514648462AAA1E9303F038F82C
:103D980000287FF468AB9DF88B202C9C1E9B0DF1AE
:103DA800B408FFF749B8D146B346FFF75DBB079B98
:103DB8005B0665D50E9B002553F8044B0E93A4B201
:103DC800FFE6514648462AAA03F01AF800287FF46D
:103DD8004AAB2C9C0DF1B408FFF78EBA0F4A2B9B07
:103DE8000F9201330F9A2C44072BCDE92B34C8E9E5
:103DF80000257FF759A82CE40E9B0A9953F8042B49
:103E08005F4611600E93FFF770B800BF676666667D
:103E18004C7B0008607B0008747B0008907B0008DE
:103E2800102B40F393845146BC4ACA460997102682
:103E3800174689462B9B0F9205E008F10808103DAC
:103E4800102D40F32A8201331034072BCDE92B348F
:103E5800C8E90076F1DD494650462AAA02F0D0FFAB
:103E6800002840F01383DDE92B340DF1B408E6E7B0
:103E7800384602F027FF2B4602460995FFF7EEB8B1
:103E8800079B002513F4007F0E9B53F8044B0E93F9
:103E980018BFE4B295E60E9A089B52F8044B13F447
:103EA800007F4FF000054FF001030E9218BFE4B2F7
:103EB800FFF7F4B8079B002513F4007F0E9B53F817
:103EC800044B0E9318BFE4B2FFF7E3B8079B13F453
:103ED800007F0E9B53F8044B18BF64B2E5170E938E
:103EE80022462B46FFF771B88C4B2B9A0F93FFF79E
:103EF800A5BA484651462AAA02F082FF00283EF495
:103F0800FDAFFFF7B6BA139ABD18AD1BD31A9D4281
:103F1800A8BF1D464FE40E9B0A9953F8042B5F4631
:103F280011800E93FEF7E1BF30238DF88C305823B3
:103F38008DF88D30079B43F00204099B632B00F337
:103F4800ED8200233DAF0D93079BDDE9141243F486
:103F5800817312931346002B26F020050794C0F2B4
:103F680055820F93002308950C911E93612E00F043
:103F78007B83412E7FF476AD24AA0C980F9902F02A
:103F880011FE00224FF07F53FCF706FB04460D4656
:103F980000220023CDE91045FCF70AFF08B10123F0
:103FA80024935F4B0C93099BCDF83CB0013B1396CF
:103FB800CDF87C90CDF880A02197BA46DDE910674E
:103FC8009946DDF830B0CDF8588006E0002200238D
:103FD800FCF7EEFE09F1FF39E8B90022514B3046F3
:103FE8003946FCF7D9FA0D460446FCF729FF804606
:103FF800FCF768FA0B46024629462046FCF714F9F6
:104008001BF80830B9F1FF3F554606460F464C46A7
:104018000AF8013BDAD1304639460022424BDDF836
:104028003CB0139ECDF83CA0CDF84C80CDE91001F2
:10403800DDE91F9ADDF85880219FFCF7E1FE002892
:1040480040F05082DDE910010022374BFCF7B0FE4A
:1040580018B1139BDB0700F14582002C08DB3022E6
:104068000F99631C0B4401F8012B8B42FBD10F9174
:104078000F9B079DDB1B1393129B07931AE5514671
:1040880048462AAA02F0BCFE00287FF4ECA9DDE924
:104098002B34249A0DF1B408FFF7CEBADBF8580098
:1040A80001F0DCFEFEF77ABE249BD81C109302DBDD
:1040B800099A934204DD023E26F02003089303E5A3
:1040C800109B13998B42C0F2AB81EA0740F1E4825E
:1040D800179A13440C936E0540F1E182109B002B54
:1040E80000F3948267260C9B23EAE373089300236A
:1040F800129316934CE52D2200238DF88B200993FB
:10410800FEF742BF289BA342BFF4D2AC30215A1C11
:1041180028921970289B9C42F9D8C9E4907B000822
:10412800607B0008000030400000E03F2D231A4665
:104138008DF88B30FEF713BF1D9B1C99FF1A1A468A
:10414800384602F0EDFD98F801300BB108F101088E
:104158000A22002320462946FCF79AFE4FF0000B5E
:10416800DFE5139B4246DDF85880FB180993CDF82C
:1041780030B00F972046DDF874B01A9F129BB8F143
:10418800000F2DD0002B6DD1013F08F1FF382B9B7C
:104198001C9901335844072BC2E9001B2C902B9320
:1041A80064DC083209993B788D1B9D42A8BF1D46E7
:1041B800002D0ADD2B9B28440133072BC2E900653B
:1041C8002C902B935DDC3B780832002DB4BF1D4644
:1041D8005D1B002D15DC1E44129BB8F1000FD1D1D8
:1041E800002B3FD1139B1A970F9F9046FB189E42B6
:1041F800324628BF1A4604461646DDF830B0FFF7A7
:10420800AFBA102D40F36A822B9910240B4604E0B4
:10421800103D102D02F1080216DD0133B0491030AF
:10422800072BCDE92B30C2E90014F1DD5146484691
:104238002AAA02F0E5FD00287FF415A9DDE92B3054
:10424800103D102D2DAAE8DC19464B1CA449284422
:10425800072BCDE92B30C2E900153EDC3B7808324C
:104268001E44B9E7129B013B129390E7514648461A
:104278002AAA02F0C5FD00287FF4F5A82C982DAADB
:1042880090E7514648462AAA02F0BAFD00287FF472
:10429800EAA83B782C982DAA97E74A46D146924639
:1042A800099F01330F9A2C44072BCDE92B34C8E919
:1042B800002500F3428108F10808FFF74ABA514681
:1042C80048462AAA02F09CFD00287FF4CCA8249A2C
:1042D8002C9C0DF1B408FFF748BB514648462AAA62
:1042E80002F08EFD00287FF4BEA83B782C982DAAFA
:1042F8001E4471E7514648462AAA02F081FD00286B
:104308007FF4B1A82C9C0DF1B408FFF71ABA5146F6
:1043180048462AAA02F074FD00287FF4A4A8249B2A
:104328002C9C0DF1B408FFF731BA099C28A9CDE9F6
:104338000004049125A824A9CDE90210484600F0FC
:104348007FFB472D07461AD1079D2B46DB0700F157
:10435800A180129A289B079247220892FFF7A8BBD0
:104368000320099C28A9CDE90004049125A824A9C3
:10437800CDE902100F9B484600F062FB0746099BF7
:10438800462D07EB03047FF486AB3B78302B00F017
:10439800B081249B129A079D1C440792FFF77EBBAD
:1043A800099B9DF88B2008930C9309900E9412900A
:1043B80016901090FEF7E5BD249A002A109240F35B
:1043C800AF81099905F001030B4340F04781662648
:1043D800109B0C936A0500F11A810C9B23EAE37386
:1043E800089384E6DDE92B21FFF7F3B851464846E8
:1043F8002AAA02F005FD00287FF435A8249B139A09
:104408002C9C0DF1B408D31AFFF7D5B908952D23C4
:10441800DDE914121E9302F100430C910F93A5E5F8
:10442800139B179A9A18109B0C92002B40F35881F3
:104438006726CFE700230993FEF71ABC55421032CE
:1044480080F2A1815146264ACA4609971026174686
:1044580089460F9204E008F10808103D102D79DD17
:1044680001331034072BCDE92B34C8E90076F2DD8F
:10447800494650462AAA02F0C3FC38B9DDE92B3474
:104488000DF1B408E9E7D146FEF7EEBFCB46D146B9
:10449800FEF7EABF099B079DFC18129B0793472369
:1044A8000893FFF7FBBA2B9BFFF71EB9DBF86430C4
:1044B800DB0707D4BBF80C309F0503D4DBF85800A2
:1044C80001F0CCFC4FF0FF330A93FEF7DFBF044B3B
:1044D8002B9A0F93FEF779BF079B0893FFF78EB8C7
:1044E800907B00080F9B0C99289513F8012CC97B29
:1044F8008A4240F02981302003F8010C289B5A1E7B
:10450800289213F8012C9142F6D0392A0BBF0C9A45
:104518000132927AD2B203F8012CA9E54846591C17
:1045280001F016FD0746002800F024810D900BE5E8
:1045380030238DF88C307823FAE4514648462AAA6D
:1045480002F05EFC00287EF48EAF2C9C0DF1B408BE
:10455800FFF7FFB84A46D1469246099F01330F9AA2
:104568002C44072BCDE92B34C8E900257FF713AA83
:10457800514648462AAA02F043FC00287EF473AF4D
:10458800DDE92B340DF1B408FFF759B8002B08BF4B
:1045980001230993079B43F480731293159B002B07
:1045A8000C93C0F2BB800224099D28A825AA24AB3D
:1045B800CDE90320CDE90045DDE914450293224603
:1045C8002B4648460D9100F03BFA0C9B07460F938B
:1045D8000D9B0C941E93B7E606230993FFF733BA95
:1045E800159B0320002BB8BF2D234FF00001BABF45
:1045F8001A468DF88B309DF88B20664F664B0890D5
:104608000D91FEF7B2BCD346FEF733BF67261A9961
:104618000B78FF2B00F0AA800024109A204603E0B4
:1046280001300131FF2B08D0934206DAD21A4B78B9
:10463800002BF5D10B780134F4E71A9110921690FB
:104648001294129A169B0C9913441D9A02FB031399
:104658000C9323EAE3730893FFF79ABA179B66262D
:10466800D31819440C91B5E624AA0C980F9902F0B6
:1046780099FA00224FF07F53FBF78EFF04460D4650
:1046880000220023CDE91045FCF792FB08B1012375
:104698002493424B0C9386E4109B0C931BE56726EE
:1046A8009BE6002937D130228DF89A200DF19B0224
:1046B800303302F8013B26ABD31A1B93FFF750BAED
:1046C80006F10F020121D2B2FFF707BA00230D93BA
:1046D8009DE6E9077FF54FAAFFF749BA2B99B4E59C
:1046E800C3F101031A4422EAE27367260C92089385
:1046F800FDE4002200230C980F99FCF759FB0028D1
:104708007FF447AE099BC3F10103249342E6244B8F
:104718000F93FFF77FBA0DF19A02C9E70D9076E67D
:10472800099A05F0010513462B4304D10123662697
:1047380008930C93DBE4179B662601331A4422EA9C
:10474800E2730C920893D2E40F9BDEE6144A2B9B8B
:104758000F92A6E50E9B9BF8016053F8040B934655
:1047680040EAE07009900E93FEF780BA0023129396
:10477800169366E7BAF80C30D34643F04003AAF81C
:104788000C30FEF776BE064A0F92E7E602231B932B
:10479800FFF7E6B9447B0008487B00084C7B00081B
:1047A800907B0008F0B50C464FF4806C4FF0000E7B
:1047B800154606461F46636EADF26C4DE28989893F
:1047C8001993E369ADF80E20626A21F0020107939C
:1047D80016A81AABADF80C10CDF818E009920093A2
:1047E8000493CDF808C0CDF814C001F031FB2A4677
:1047F8003B4669463046FEF7C9F9051E07DB3046D9
:10480800694601F0FBF8002818BF4FF0FF35BDF8E6
:104818000C305B0603D5A38943F04003A3811698A7
:1048280001F018FB28460DF26C4DF0BD38B5324B3F
:10483800054618680C4610B1836B002B3CD0B4F9C0
:104848000C3018079AB20CD52169A9B112F00100F1
:1048580022D000256069A5604042A06111B3002004
:1048680038BDD1063FD5520729D4216943F0080342
:10487800A3819AB20029E9D102F42070B0F5007F33
:10488800E4D02846214601F019FBB4F90C3021691F
:104898009AB212F00100DCD1950758BF6069A06098
:1048A8000029DCD1120658BF0846D9D543F0400389
:1048B8004FF0FF30A38138BD01F0FCF8BFE7216B52
:1048C80051B104F14002914204D0284601F092F916
:1048D800B4F90C30002222630022216923F024035A
:1048E800C4E90012C2E7092243F040032A604FF0EE
:1048F800FF30A38138BD00BF0C000020024B13B16C
:10490800024800F005B8704700000000315B00085D
:10491800002301461A46184602F092BA2DE9F04FD4
:1049280003690D6983B0AB42C0F28480013D01F197
:10493800140600F1140956F8253059F825200133DA
:104948008E46A90000919A4209EB85018246B2FB86
:10495800F3F706EB8508019137D30022B4461446D5
:1049680048465CF8043B01681FFA83FB07FB0B22EF
:104978001B0C4FEA124B07FB03BB93B2E31A8AB234
:104988001FFA8BF41344C4EB114404EB23449BB289
:1049980043EA0443E04540F8043B4FEA24444FEA25
:1049A8001B42DED2009B59F8033073B9019B043BCC
:1049B800994504D307E0994505F1FF3503D253F82B
:1049C8000429002AF7D0CAF810507146504601F061
:1049D800DBFF00282ADB48460023013756F8041B72
:1049E80004688AB29A1A0B0CA1B20A44C3EB1443A6
:1049F80003EB224392B242EA0342B04540F8042B4B
:104A08004FEA2343EAD259F8252009EB85036AB90E
:104A1800043B994504D307E0994505F1FF3503D2D6
:104A280053F80429002AF7D0CAF81050384603B0C2
:104A3800BDE8F08F002003B0BDE8F08F0000000053
:104A48002DE9F04F16461F46016C9BB00446CDE990
:104A58000467279D41B10123426C9340C1E90123BA
:104A680001F096FD00232364B7F10009B4BF0123C8
:104A780000232B60764BBCBF29F00049CDF8149079
:104A880033EA090300F0AB80DDE904231046194638
:104A980000220023CDE90601FCF78AF9804670B1AF
:104AA8000123269A1360289B002B00F0C5826948D1
:104AB8001860431E039303981BB0BDE8F08F18AA33
:104AC80019ABCDE90032DDE90623204602F016F8DD
:104AD8005FEA1955824640F09880DDE9188545441B
:104AE80005F23240202840F38983C0F1400305F2E3
:104AF800124009FA03F926FA00F049EA0000FBF728
:104B0800D1FC0122013D1092A1F1F8710022524B13
:104B1800FBF78AFB48A3D3E90023FBF73DFD48A335
:104B2800D3E90023FBF782FB064628460F46FBF72E
:104B3800C9FC45A3D3E90023FBF72EFD02460B462B
:104B480030463946FBF772FB06460F46FCF778F904
:104B580000228346002330463946FCF733F9002803
:104B680040F05D82BBF1160F00F24B82DDE90601D1
:104B78003A4B03EBCB03D3E90023FCF723F90028D6
:104B880072D00023A8EB0505B5F101090BF1FF3B35
:104B98000D9300F13E8200230993BBF1000F6BDAFD
:104BA800099BCDF820B0A3EB0B030993CBF10003CD
:104BB8000C93249B4FF0000B092B65D8052B40F371
:104BC8001B830025043B2493249B023B032B00F208
:104BD8006286DFE813F03B0438042F040F0442F226
:104BE8000F73269AC9F31309136059EA06031CD1F7
:104BF800289B002B00F04686194B03930833289A0C
:104C0800039813601BB0BDE8F08FDDE90612C2F30C
:104C18001303084643F07F51CDF84080A5F2FF35D5
:104C2800DDF8608041F4401170E7289B002B40F0CC
:104C3800D1830C4B03933EE761436F63A787D23F51
:104C4800B3C8608B288AC63FFB799F501344D33F73
:104C58000000F07F7D7B00080000F83FD87B00084B
:104C6800A47B0008A07B0008A8EB0505B5F10109A5
:104C780000F196840D90099000230C93249BD9444D
:104C8800092BCDF820B099D94FF0FF360125002324
:104C9800CDE90A6524932593002111966164204685
:104CA80001F050FC0E2E0390206400F2F280002DDB
:104CB80000F0EF800899002940F34084B94B01F0D7
:104CC8000F0203EBC203CA054FEA2115D3E90067B7
:104CD80040F1DB83DDE90601B34B05F00F05D3E9AD
:104CE8000823FBF783FD0323CDE912010E93A5B139
:104CF8001494DFF8B4820E9CEB0708D5D8E900239A
:104D080030463946FBF748FC06460F4601346D101D
:104D180008F10808F0D10E94149C3B46DDE9120115
:104D28003246FBF763FD074688460D9B43B10022D8
:104D3800384641469D4BFCF745F8002840F02E8543
:104D48000E98FBF7BFFB3A464346FBF725FC984B0A
:104D58000022FBF76BFAA1F15073CDE90E010F9316
:104D68000A9B002B00F0CC83089B14930A9B129398
:104D78000B9B002B00F09684129A8A4B002003EBC1
:104D8800C20353E902238B49FBF730FDDDE90E230B
:104D9800FBF74AFA02460B4638464146CDE90E2350
:104DA800FCF74EF81590FBF78DFB02460B4638468C
:104DB8004146FBF739FA159B039D303306460F46EB
:104DC800024605F8013B0B46DDE90E01FCF718F831
:104DD800002840F024850023CDE916B9CDF854A069
:104DE8009846DDE90EABDDF848900E9428E0C845FA
:104DF8004ADA5046594600226F4BFBF7CDFB00229A
:104E08006D4B82468B4630463946FBF7C5FB0F464D
:104E18000646FCF715F80446FBF754FB02460B461A
:104E280030463946FBF700FA303452465B4605F8FF
:104E3800014B06460F46FBF7C5FF002840F0EC84FF
:104E480032463B4600205949FBF7EEF952465B468D
:104E5800FBF7B8FF08F101080028C8D0149BDDF85B
:104E680054A00E9C039A089302E0954200F0BE8479
:104E7800A94615F8013D392BF7D00133DBB22B7069
:104E8800089B01330893A0E1DDF854A00E9CDDE9EE
:104E980016B9199B002BC0F29380089A0E2A00F3CA
:104EA8008F80404B03EBC203D3E90023CDE90423F1
:104EB800259B002B1ADA0A9B002B17DC40F0A784ED
:104EC800DDE9040100223D4BFBF766FB02460B4679
:104ED800DDE90601FBF780FFDDF82880454600285C
:104EE80000F04182259B039FDE4344E2DDE904672D
:104EF800DDE9060132463B46FBF778FCFBF7A0FFED
:104F08008046FBF7DFFA32463B46FBF745FB0B468C
:104F18000246DDE90601FBF787F9039D08F1300336
:104F280005F8013B0A9B012B00F07183CDF818A00E
:104F38004FF00109AA469B4609941BE032463B46BE
:104F480020462946FBF752FCFBF77AFF8046FBF721
:104F5800B9FA32463B46FBF71FFB0B460246294689
:104F68002046FBF761F908F13003D9450AF8013BFF
:104F780000F049830022104BFBF70EFB00220023B0
:104F880004460D46FBF714FF09F101090028D5D0A6
:104F98005546099CDDF818A0089BA94601330893DB
:104FA80013E100BFD87B0008B07B00080000F03F89
:104FB80000001C400000E03F0000244000001440B6
:104FC8000B9A002A3ED0249A012A40F37C820A9B3D
:104FD8005F1E0C9BBB4280F256820C9B0C97FB1AFF
:104FE80000279B440A9B002BC0F23F83099A9944EF
:104FF80016461A4409920121204601F061FB054634
:1050080023E00123A8EB0505B5F101090D937FF510
:10501800C2ADC5F101034FF000090993BDE558463B
:10502800FBF750FA32463B46FBF7C2FE00287FF4F6
:1050380099AD0BF1FF3B95E5BF4B039303981BB06C
:10504800BDE8F08F0C9F099E0B9D002E0CDDB9F179
:10505800000F09DD4E453346A8BF4B46099AF61A9C
:10506800D21A0992A9EB03090C9BD3B10B9B002B15
:1050780000F0A981002F10DD29463A46204601F0AC
:10508800CBFB524601460546204601F023FB03466A
:10509800514620469A4601F07BFA0C9BDA1B40F0F9
:1050A80093810121204601F00BFBBBF1000F8046E4
:1050B80000F3A980249B012B40F390810027012055
:1050C800BBF1000F40F0AA80484410F01F0000F028
:1050D8009180C0F12003042B40F3D883C0F11C0059
:1050E800099B0644034409938144099B002B05DD71
:1050F80051461A46204601F0DFFB8246B9F1000FFF
:1051080005DD41464A46204601F0D6FB80460D9B08
:10511800002B40F03D810A9B002B40F30F810B9B35
:10512800002B40F08D80089B013308930126039FD4
:10513800DDF8289007E0514600230A22204601F0B6
:1051480031FA8246013641465046FFF7E7FB4E45A5
:1051580000F1300307F8013BEDDB0A9A0026002A2C
:10516800CCBF93464FF0010B039A9344514601225A
:105178002046049301F0A0FB4146824601F004FC5E
:10518800002840F38E811BF8013C039A0BF1FF3B8A
:1051980004E05A4500F090811BF8013D392B0BF1D2
:1051A8000109F6D001338BF800304146204601F062
:1051B800EFF955B12EB1AE4203D03146204601F089
:1051C800E7F92946204601F0E3F95146204601F067
:1051D800DFF9002389F80030269B1A46089B1360E4
:1051E800289B002B3FF467AC0398C3F800901BB0D2
:1051F800BDE8F08F1C2073E70125E5E4C0F120002D
:1052080006FA00F07BE401465A46204601F004FB0A
:10521800249B8046012B40F3C5810027D8F8103025
:1052280008EB8303186901F0FBF9C0F120004BE794
:10523800249B022B00F31D83119BCDF820900A9329
:10524800089B01330893002E00F31681002F40F0CD
:10525800F8812F460399049B0E4603F001024B1E6A
:1052680024990C920A430B920A9A1A440A924146CC
:105278005046FFF753FB29468346504601F084FB0E
:105288003A4641468146204601F09CFBC2680146E9
:105298000BF13003002A42D106905046099301F0E1
:1052A80073FB06990490204601F072F9049A099B51
:1052B8001AB90B99002900F0C282B9F1000FC0F2A7
:1052C8008781249941EA09090C9951EA090100F0FA
:1052D8007F81002A00F3CD810A9A06F10109B242C2
:1052E800CB46337000F0CF81514600230A22204676
:1052F80001F058F9BD42824629464FF000034FF0AD
:105308000A02204612D001F04DF93946054600231D
:105318000A22204601F046F94E460746A7E72046EE
:10532800049301F035F90122049BC6E701F03AF92C
:105338004E46054607469AE77C7B0008249B022BCD
:1053480040F387800A9B002B7FF4CCAD41460522B1
:10535800204601F027F980465046414601F014FBEB
:1053680000287FF7BFAD039F31223B46089E03F814
:10537800012B013603934146204601F009F9731CBD
:10538800DDF80C9008930397002D7FF41AAF1CE703
:105398004146504601F0F8FA0028BFF6BCAE514627
:1053A80000230A22204601F0FDF8089B824603F1FB
:1053B800FF390B9B002B40F04982119B002B40F3D7
:1053C80052820A93B2E60C9A5146204601F024FA1A
:1053D800824666E6AD4B0393033310E4DDE904121D
:1053E80000297FF46BAEC2F31303002B00F0E480B6
:1053F800049F64E601230B93259B089A1344119399
:105408000133012B1E46B8BF01260A930021172E2F
:10541800D8BF0A9E61647FF742AC012204235B0077
:1054280003F11400B042114602F10102F7D90A9EB5
:10543800616434E401230B93259B002B2CDD1E466D
:1054480011930A93E2E700230B93D5E700230B930C
:10545800F2E70B9B002B7FF4F3AE41465046FFF773
:105468005DFA089ADDF80CB000F13003013200262D
:1054780008920BF8013B79E629463246204601F0AE
:105488001BFA0546E2E6DF1BACE5DDE90623CDE9BC
:10549800122302230E932AE4012625960A96FFF783
:1054A800FBBB03D1049BDB073FF56DAED9461BF868
:1054B800013D302BFAD078E63123089A0132089260
:1054C800039A137071E6109A002A00F05781099A1E
:1054D80003F2334316461A440C9F994409928AE50D
:1054E8000E98FAF7EFFF3A464346FBF755F8684B34
:1054F8000022FAF79BFEA1F15073CDE90E010F933C
:10550800384641460022634BFAF78EFEDDE90E234A
:1055180006460F46FBF774FC8046002840F073816E
:10552800DDE90E01024601F1004330463946FBF73A
:1055380049FC00283FF4ADAC4546D3E400F028818F
:10554800DDE90601089B5D42534B05F00F0203EBB2
:10555800C203D3E90023FBF71FF82D11074688463D
:1055680000F08C810222CDE912780023A04614466F
:105578004A4EEF0705D5D6E90023FBF70DF80123BE
:105588001C446D1006F10806F3D10E944446DDE97B
:105598001278002B3FF4C9AB07468846FFF7C5BB16
:1055A8000D9036E5DDE9041200297FF436AEC2F32A
:1055B8001303002B7FF431AE394F1740002F3FF40F
:1055C8007EAD099B01270133099309F1010976E5AD
:1055D800002A12DD514601222046049301F06CF99D
:1055E8004146824601F0D0F90028049B40F321810E
:1055F800392B00F001810BF13103B1462E4609F831
:10560800013B3D46D1E55546099CDDF818A0024608
:105618000B46FAF70BFEDDE9042306460F46FBF7B7
:10562800EFFB60B9DDE9042330463946FBF7C0FBE0
:1056380000283FF4B1AC18F0010F3FF4ADAC039A69
:1056480016E46968204600F07DFF06462B6905F1DF
:105658000C0102339A000C30FBF7DEFA31460122C6
:10566800204601F029F90746F4E5DDE909329E1ADA
:10567800C1E4392B00F0C080B14601332E4609F849
:10568800013B3D4691E52E463D466FE5A07B00086F
:1056980000001C4000001440D87B0008B07B0008C4
:1056A8000000F07F12988449DDE90E2301EBC00168
:1056B80051E90201FAF770FF02460B4638464146A7
:1056C800CDE90E23FBF7BCFB0646FAF7FBFE0B46BB
:1056D800024641463846FAF7A7FD06F1300306466A
:1056E8001298039D01280F4605F8013B22D0129B12
:1056F800039ACDF848B01344984600226F4B3046C1
:105708003946FAF749FF0F460646FBF799FB8346E9
:10571800FAF7D8FE02460B4630463946FAF784FDBA
:105728000BF1300B05F801BB454506460F46E4D1A1
:10573800DDF848B00022DDE90E01614BFAF776FD8D
:1057480032463B46FBF73EFB00286DD1DDE90E23D0
:1057580000205B49FAF768FD32463B46FBF750FBF1
:1057680000283FF496AB15F8013CA946302B05F10B
:10577800FF35F8D0149B0133089326E5189B099A46
:10578800C3F1360316461A440C9F9944099232E431
:105798000223DDE906780E93FFF7C7BA0A9B002BB0
:1057A8003FF49EAE119D002D7FF773AB434B3846F7
:1057B80041460022FAF7F0FE0246884617460E9840
:1057C8000130FAF77FFE3A464346FAF7E5FE002233
:1057D8003C4BFAF72BFD089AA1F15073013ACDE939
:1057E8000E0114920F931295FFF7C2BA089B01336A
:1057F80008933123FFF743BBB34639232E460BF8F2
:10580800013B3D46C1E44FF000084546ABE54FF08B
:1058180000084546FFF766BBDDF854A00E9C149BB4
:10582800A94601330893D0E4149B039A0893FFF721
:105838001FBB7FF4E2AEDA077FF5DFAED8E6392B7F
:10584800DAD0B9F1000F3FF7D6AED6E629460023E5
:105858000A22204600F0A6FE119B0546002B7FF782
:10586800E7AC0A93EFE4249B022B02DCCDF82090EE
:10587800F3E5119BCDF820900A9363E502230E937C
:10588800FFF753BA104B0393FFF715B93FF42DAC4C
:10589800C0F13C0024E4002520462946656400F058
:1058A80051FE4FF0FF3311930A930123039025957E
:1058B80020640B93FFF7EDBAD87B00080000244062
:1058C8000000E03F00001C40A47B0008B1F90C2058
:1058D8002DE9F0410D461107804647D46B6842F424
:1058E8000062002BAA815EDDAC6A002C58D0002330
:1058F800D8F80060C8F8003093B212F4805256D13C
:1059080001234046E969A047431C67D0AB89AC6ACC
:105918005F0705D56A682B6B801A0BB1EB6BC01A51
:105928000246E96900234046A047411C41D1D8F806
:105938000030002B3DD01D2B01D0162B56D1002155
:105948002A69AB89C5E9002123F40063AB81296B7F
:10595800C8F8006021B305F14003994202D04046DF
:1059680000F048F900202863BDE8F0812F69BFB135
:1059780093B29A0718BF00232E6808BF6B692F607F
:10598800F61BAB600AE033463A466C6A4046E96962
:10599800A047041EA6EB0406274417DD002EF2DC00
:1059A8000020BDE8F081EB6B002B9DDCF8E7286D4B
:1059B800AEE70021B5F90C302A6923F40063AB8106
:1059C800DB04C5E90021C2D52865C0E7AB894FF0E3
:1059D800FF3043F04003AB81BDE8F081D8F80030D8
:1059E800002B93D01D2B06D0162B04D0AB8943F087
:1059F8004003AB81D5E7C8F80060D1E738B50C465D
:105A0800054608B1836BA3B1B4F90C00B8B1636E55
:105A1800DB0701D4810515D528462146FFF756FF37
:105A2800636E0546DA0702D4A3899B050ED528467E
:105A380038BD00F03FF8B4F90C000028E7D105465E
:105A4800284638BDA06D00F007FAE5E7A06D00F024
:105A580005FA284638BD00BF002310B50446C0E942
:105A68000033C0E904338181C281194683604366EB
:105A7800836108225C30FDF725F807480749084A82
:105A8800084BC4E90740C4E90912E36204F158006D
:105A9800BDE8104000F0DCB9416C0008656C0008F6
:105AA800A56C0008C56C0008014900F0A9B900BF41
:105AB800596F000810B50446134800F0CDF9A26BE1
:105AC800EAB90320114904F53B73C4F8E832C4E984
